{
  "contracts/CoreLoanPlatform.sol": {
    "CoreLoanPlatform": {
      "abi": [
        {
          "inputs": [],
          "name": "BORROWABLE_RATIO",
          "outputs": [
            {
              "internalType": "uint256",
              "name": "",
              "type": "uint256"
            }
          ],
          "stateMutability": "view",
          "type": "function"
        },
        {
          "inputs": [],
          "name": "COLLATERAL_RATIO",
          "outputs": [
            {
              "internalType": "uint256",
              "name": "",
              "type": "uint256"
            }
          ],
          "stateMutability": "view",
          "type": "function"
        },
        {
          "inputs": [],
          "name": "INTEREST_RATE",
          "outputs": [
            {
              "internalType": "uint256",
              "name": "",
              "type": "uint256"
            }
          ],
          "stateMutability": "view",
          "type": "function"
        },
        {
          "inputs": [],
          "name": "LOAN_DURATION",
          "outputs": [
            {
              "internalType": "uint256",
              "name": "",
              "type": "uint256"
            }
          ],
          "stateMutability": "view",
          "type": "function"
        },
        {
          "inputs": [
            {
              "internalType": "uint256",
              "name": "amount",
              "type": "uint256"
            }
          ],
          "name": "borrowCORE",
          "outputs": [
            {
              "internalType": "string",
              "name": "",
              "type": "string"
            }
          ],
          "stateMutability": "nonpayable",
          "type": "function"
        },
        {
          "inputs": [
            {
              "internalType": "uint256",
              "name": "amount",
              "type": "uint256"
            }
          ],
          "name": "depositCORE",
          "outputs": [
            {
              "internalType": "string",
              "name": "",
              "type": "string"
            }
          ],
          "stateMutability": "nonpayable",
          "type": "function"
        },
        {
          "inputs": [
            {
              "internalType": "uint256",
              "name": "amount",
              "type": "uint256"
            }
          ],
          "name": "depositCollateral",
          "outputs": [
            {
              "internalType": "string",
              "name": "",
              "type": "string"
            }
          ],
          "stateMutability": "nonpayable",
          "type": "function"
        },
        {
          "inputs": [
            {
              "internalType": "address",
              "name": "",
              "type": "address"
            }
          ],
          "name": "lenderBalances",
          "outputs": [
            {
              "internalType": "uint256",
              "name": "",
              "type": "uint256"
            }
          ],
          "stateMutability": "view",
          "type": "function"
        },
        {
          "inputs": [
            {
              "internalType": "address",
              "name": "",
              "type": "address"
            }
          ],
          "name": "loans",
          "outputs": [
            {
              "internalType": "uint256",
              "name": "amount",
              "type": "uint256"
            },
            {
              "internalType": "uint256",
              "name": "collateral",
              "type": "uint256"
            },
            {
              "internalType": "uint256",
              "name": "timestamp",
              "type": "uint256"
            },
            {
              "internalType": "bool",
              "name": "active",
              "type": "bool"
            }
          ],
          "stateMutability": "view",
          "type": "function"
        },
        {
          "inputs": [],
          "name": "repayLoan",
          "outputs": [
            {
              "internalType": "string",
              "name": "",
              "type": "string"
            }
          ],
          "stateMutability": "nonpayable",
          "type": "function"
        },
        {
          "inputs": [
            {
              "internalType": "uint256",
              "name": "amount",
              "type": "uint256"
            }
          ],
          "name": "withdrawCORE",
          "outputs": [
            {
              "internalType": "string",
              "name": "",
              "type": "string"
            }
          ],
          "stateMutability": "nonpayable",
          "type": "function"
        },
        {
          "inputs": [
            {
              "internalType": "uint256",
              "name": "amount",
              "type": "uint256"
            }
          ],
          "name": "withdrawCollateral",
          "outputs": [
            {
              "internalType": "string",
              "name": "",
              "type": "string"
            }
          ],
          "stateMutability": "nonpayable",
          "type": "function"
        }
      ],
      "evm": {
        "bytecode": {
          "linkReferences": {},
          "object": "608060405260008055600060015534801561001957600080fd5b5061047f806100296000396000f3fe608060405234801561001057600080fd5b50600436106100d45760003560e01c8063a27a944d11610081578063d9e69a051161005b578063d9e69a05146101e8578063e02a4dfd146101f0578063f966ade7146101fa57600080fd5b8063a27a944d146101a2578063bad4a01f146101c2578063caec2529146101d557600080fd5b80636e35f124116100b25780636e35f1241461012b57806373b4086b146101335780638a7130a01461018f57600080fd5b806333813002146100d95780635b72a33a146101025780636112fe2e14610118575b600080fd5b6100ec6100e73660046102c7565b610202565b6040516100f991906102e0565b60405180910390f35b61010a600581565b6040519081526020016100f9565b6100ec6101263660046102c7565b610223565b61010a605081565b61016d61014136600461032f565b600260208190526000918252604090912080546001820154928201546003909201549092919060ff1684565b60408051948552602085019390935291830152151560608201526080016100f9565b6100ec61019d3660046102c7565b610244565b61010a6101b036600461032f565b60036020526000908152604090205481565b6100ec6101d03660046102c7565b610265565b6100ec6101e33660046102c7565b610286565b61010a609681565b61010a62278d0081565b6100ec6102a7565b60606040518060600160405280602281526020016103c06022913992915050565b60606040518060600160405280602a8152602001610396602a913992915050565b60606040518060600160405280602481526020016103e26024913992915050565b606060405180606001604052806029815260200161036d6029913992915050565b60606040518060600160405280602381526020016104066023913992915050565b606060405180606001604052806021815260200161042960219139905090565b6000602082840312156102d957600080fd5b5035919050565b60006020808352835180602085015260005b8181101561030e578581018301518582016040015282016102f2565b506000604082860101526040601f19601f8301168501019250505092915050565b60006020828403121561034157600080fd5b813573ffffffffffffffffffffffffffffffffffffffff8116811461036557600080fd5b939250505056fe596f752061726520696e20746865206465706f736974436f6c6c61746572616c2066756e6374696f6e596f752061726520696e20746865207769746864726177436f6c6c61746572616c2066756e6374696f6e596f752061726520696e2074686520626f72726f77434f52452066756e6374696f6e596f752061726520696e20746865207769746864726177434f52452066756e6374696f6e596f752061726520696e20746865206465706f736974434f52452066756e6374696f6e596f752061726520696e207468652072657061794c6f616e2066756e6374696f6ea2646970667358221220c02058048843a2a85d922266b9757f7636d01ec2bd38a34ad034d8f9df7f0b4c64736f6c63430008180033",
          "opcodes": "PUSH1 0x80 PUSH1 0x40 MSTORE PUSH1 0x0 DUP1 SSTORE PUSH1 0x0 PUSH1 0x1 SSTORE CALLVALUE DUP1 ISZERO PUSH2 0x19 JUMPI PUSH1 0x0 DUP1 REVERT JUMPDEST POP PUSH2 0x47F DUP1 PUSH2 0x29 PUSH1 0x0 CODECOPY PUSH1 0x0 RETURN INVALID PUSH1 0x80 PUSH1 0x40 MSTORE CALLVALUE DUP1 ISZERO PUSH2 0x10 JUMPI PUSH1 0x0 DUP1 REVERT JUMPDEST POP PUSH1 0x4 CALLDATASIZE LT PUSH2 0xD4 JUMPI PUSH1 0x0 CALLDATALOAD PUSH1 0xE0 SHR DUP1 PUSH4 0xA27A944D GT PUSH2 0x81 JUMPI DUP1 PUSH4 0xD9E69A05 GT PUSH2 0x5B JUMPI DUP1 PUSH4 0xD9E69A05 EQ PUSH2 0x1E8 JUMPI DUP1 PUSH4 0xE02A4DFD EQ PUSH2 0x1F0 JUMPI DUP1 PUSH4 0xF966ADE7 EQ PUSH2 0x1FA JUMPI PUSH1 0x0 DUP1 REVERT JUMPDEST DUP1 PUSH4 0xA27A944D EQ PUSH2 0x1A2 JUMPI DUP1 PUSH4 0xBAD4A01F EQ PUSH2 0x1C2 JUMPI DUP1 PUSH4 0xCAEC2529 EQ PUSH2 0x1D5 JUMPI PUSH1 0x0 DUP1 REVERT JUMPDEST DUP1 PUSH4 0x6E35F124 GT PUSH2 0xB2 JUMPI DUP1 PUSH4 0x6E35F124 EQ PUSH2 0x12B JUMPI DUP1 PUSH4 0x73B4086B EQ PUSH2 0x133 JUMPI DUP1 PUSH4 0x8A7130A0 EQ PUSH2 0x18F JUMPI PUSH1 0x0 DUP1 REVERT JUMPDEST DUP1 PUSH4 0x33813002 EQ PUSH2 0xD9 JUMPI DUP1 PUSH4 0x5B72A33A EQ PUSH2 0x102 JUMPI DUP1 PUSH4 0x6112FE2E EQ PUSH2 0x118 JUMPI JUMPDEST PUSH1 0x0 DUP1 REVERT JUMPDEST PUSH2 0xEC PUSH2 0xE7 CALLDATASIZE PUSH1 0x4 PUSH2 0x2C7 JUMP JUMPDEST PUSH2 0x202 JUMP JUMPDEST PUSH1 0x40 MLOAD PUSH2 0xF9 SWAP2 SWAP1 PUSH2 0x2E0 JUMP JUMPDEST PUSH1 0x40 MLOAD DUP1 SWAP2 SUB SWAP1 RETURN JUMPDEST PUSH2 0x10A PUSH1 0x5 DUP2 JUMP JUMPDEST PUSH1 0x40 MLOAD SWAP1 DUP2 MSTORE PUSH1 0x20 ADD PUSH2 0xF9 JUMP JUMPDEST PUSH2 0xEC PUSH2 0x126 CALLDATASIZE PUSH1 0x4 PUSH2 0x2C7 JUMP JUMPDEST PUSH2 0x223 JUMP JUMPDEST PUSH2 0x10A PUSH1 0x50 DUP2 JUMP JUMPDEST PUSH2 0x16D PUSH2 0x141 CALLDATASIZE PUSH1 0x4 PUSH2 0x32F JUMP JUMPDEST PUSH1 0x2 PUSH1 0x20 DUP2 SWAP1 MSTORE PUSH1 0x0 SWAP2 DUP3 MSTORE PUSH1 0x40 SWAP1 SWAP2 KECCAK256 DUP1 SLOAD PUSH1 0x1 DUP3 ADD SLOAD SWAP3 DUP3 ADD SLOAD PUSH1 0x3 SWAP1 SWAP3 ADD SLOAD SWAP1 SWAP3 SWAP2 SWAP1 PUSH1 0xFF AND DUP5 JUMP JUMPDEST PUSH1 0x40 DUP1 MLOAD SWAP5 DUP6 MSTORE PUSH1 0x20 DUP6 ADD SWAP4 SWAP1 SWAP4 MSTORE SWAP2 DUP4 ADD MSTORE ISZERO ISZERO PUSH1 0x60 DUP3 ADD MSTORE PUSH1 0x80 ADD PUSH2 0xF9 JUMP JUMPDEST PUSH2 0xEC PUSH2 0x19D CALLDATASIZE PUSH1 0x4 PUSH2 0x2C7 JUMP JUMPDEST PUSH2 0x244 JUMP JUMPDEST PUSH2 0x10A PUSH2 0x1B0 CALLDATASIZE PUSH1 0x4 PUSH2 0x32F JUMP JUMPDEST PUSH1 0x3 PUSH1 0x20 MSTORE PUSH1 0x0 SWAP1 DUP2 MSTORE PUSH1 0x40 SWAP1 KECCAK256 SLOAD DUP2 JUMP JUMPDEST PUSH2 0xEC PUSH2 0x1D0 CALLDATASIZE PUSH1 0x4 PUSH2 0x2C7 JUMP JUMPDEST PUSH2 0x265 JUMP JUMPDEST PUSH2 0xEC PUSH2 0x1E3 CALLDATASIZE PUSH1 0x4 PUSH2 0x2C7 JUMP JUMPDEST PUSH2 0x286 JUMP JUMPDEST PUSH2 0x10A PUSH1 0x96 DUP2 JUMP JUMPDEST PUSH2 0x10A PUSH3 0x278D00 DUP2 JUMP JUMPDEST PUSH2 0xEC PUSH2 0x2A7 JUMP JUMPDEST PUSH1 0x60 PUSH1 0x40 MLOAD DUP1 PUSH1 0x60 ADD PUSH1 0x40 MSTORE DUP1 PUSH1 0x22 DUP2 MSTORE PUSH1 0x20 ADD PUSH2 0x3C0 PUSH1 0x22 SWAP2 CODECOPY SWAP3 SWAP2 POP POP JUMP JUMPDEST PUSH1 0x60 PUSH1 0x40 MLOAD DUP1 PUSH1 0x60 ADD PUSH1 0x40 MSTORE DUP1 PUSH1 0x2A DUP2 MSTORE PUSH1 0x20 ADD PUSH2 0x396 PUSH1 0x2A SWAP2 CODECOPY SWAP3 SWAP2 POP POP JUMP JUMPDEST PUSH1 0x60 PUSH1 0x40 MLOAD DUP1 PUSH1 0x60 ADD PUSH1 0x40 MSTORE DUP1 PUSH1 0x24 DUP2 MSTORE PUSH1 0x20 ADD PUSH2 0x3E2 PUSH1 0x24 SWAP2 CODECOPY SWAP3 SWAP2 POP POP JUMP JUMPDEST PUSH1 0x60 PUSH1 0x40 MLOAD DUP1 PUSH1 0x60 ADD PUSH1 0x40 MSTORE DUP1 PUSH1 0x29 DUP2 MSTORE PUSH1 0x20 ADD PUSH2 0x36D PUSH1 0x29 SWAP2 CODECOPY SWAP3 SWAP2 POP POP JUMP JUMPDEST PUSH1 0x60 PUSH1 0x40 MLOAD DUP1 PUSH1 0x60 ADD PUSH1 0x40 MSTORE DUP1 PUSH1 0x23 DUP2 MSTORE PUSH1 0x20 ADD PUSH2 0x406 PUSH1 0x23 SWAP2 CODECOPY SWAP3 SWAP2 POP POP JUMP JUMPDEST PUSH1 0x60 PUSH1 0x40 MLOAD DUP1 PUSH1 0x60 ADD PUSH1 0x40 MSTORE DUP1 PUSH1 0x21 DUP2 MSTORE PUSH1 0x20 ADD PUSH2 0x429 PUSH1 0x21 SWAP2 CODECOPY SWAP1 POP SWAP1 JUMP JUMPDEST PUSH1 0x0 PUSH1 0x20 DUP3 DUP5 SUB SLT ISZERO PUSH2 0x2D9 JUMPI PUSH1 0x0 DUP1 REVERT JUMPDEST POP CALLDATALOAD SWAP2 SWAP1 POP JUMP JUMPDEST PUSH1 0x0 PUSH1 0x20 DUP1 DUP4 MSTORE DUP4 MLOAD DUP1 PUSH1 0x20 DUP6 ADD MSTORE PUSH1 0x0 JUMPDEST DUP2 DUP2 LT ISZERO PUSH2 0x30E JUMPI DUP6 DUP2 ADD DUP4 ADD MLOAD DUP6 DUP3 ADD PUSH1 0x40 ADD MSTORE DUP3 ADD PUSH2 0x2F2 JUMP JUMPDEST POP PUSH1 0x0 PUSH1 0x40 DUP3 DUP7 ADD ADD MSTORE PUSH1 0x40 PUSH1 0x1F NOT PUSH1 0x1F DUP4 ADD AND DUP6 ADD ADD SWAP3 POP POP POP SWAP3 SWAP2 POP POP JUMP JUMPDEST PUSH1 0x0 PUSH1 0x20 DUP3 DUP5 SUB SLT ISZERO PUSH2 0x341 JUMPI PUSH1 0x0 DUP1 REVERT JUMPDEST DUP2 CALLDATALOAD PUSH20 0xFFFFFFFFFFFFFFFFFFFFFFFFFFFFFFFFFFFFFFFF DUP2 AND DUP2 EQ PUSH2 0x365 JUMPI PUSH1 0x0 DUP1 REVERT JUMPDEST SWAP4 SWAP3 POP POP POP JUMP INVALID MSIZE PUSH16 0x752061726520696E2074686520646570 PUSH16 0x736974436F6C6C61746572616C206675 PUSH15 0x6374696F6E596F752061726520696E KECCAK256 PUSH21 0x6865207769746864726177436F6C6C61746572616C KECCAK256 PUSH7 0x756E6374696F6E MSIZE PUSH16 0x752061726520696E2074686520626F72 PUSH19 0x6F77434F52452066756E6374696F6E596F7520 PUSH2 0x7265 KECCAK256 PUSH10 0x6E207468652077697468 PUSH5 0x726177434F MSTORE GASLIMIT KECCAK256 PUSH7 0x756E6374696F6E MSIZE PUSH16 0x752061726520696E2074686520646570 PUSH16 0x736974434F52452066756E6374696F6E MSIZE PUSH16 0x752061726520696E2074686520726570 PUSH2 0x794C PUSH16 0x616E2066756E6374696F6EA264697066 PUSH20 0x58221220C02058048843A2A85D922266B9757F76 CALLDATASIZE 0xD0 0x1E 0xC2 0xBD CODESIZE LOG3 BLOBBASEFEE 0xD0 CALLVALUE 0xD8 0xF9 0xDF PUSH32 0xB4C64736F6C6343000818003300000000000000000000000000000000000000 "
        },
        "methodIdentifiers": {
          "BORROWABLE_RATIO()": "6e35f124",
          "COLLATERAL_RATIO()": "d9e69a05",
          "INTEREST_RATE()": "5b72a33a",
          "LOAN_DURATION()": "e02a4dfd",
          "borrowCORE(uint256)": "33813002",
          "depositCORE(uint256)": "caec2529",
          "depositCollateral(uint256)": "bad4a01f",
          "lenderBalances(address)": "a27a944d",
          "loans(address)": "73b4086b",
          "repayLoan()": "f966ade7",
          "withdrawCORE(uint256)": "8a7130a0",
          "withdrawCollateral(uint256)": "6112fe2e"
        }
      }
    }
  }
}