{
  "_format": "hh-sol-artifact-1",
  "contractName": "CoreLoanPlatform",
  "sourceName": "contracts/CoreLoanPlatform.sol",
  "abi": [
    {
      "inputs": [],
      "name": "BORROWABLE_RATIO",
      "outputs": [
        {
          "internalType": "uint256",
          "name": "",
          "type": "uint256"
        }
      ],
      "stateMutability": "view",
      "type": "function"
    },
    {
      "inputs": [],
      "name": "COLLATERAL_RATIO",
      "outputs": [
        {
          "internalType": "uint256",
          "name": "",
          "type": "uint256"
        }
      ],
      "stateMutability": "view",
      "type": "function"
    },
    {
      "inputs": [],
      "name": "INTEREST_RATE",
      "outputs": [
        {
          "internalType": "uint256",
          "name": "",
          "type": "uint256"
        }
      ],
      "stateMutability": "view",
      "type": "function"
    },
    {
      "inputs": [],
      "name": "LOAN_DURATION",
      "outputs": [
        {
          "internalType": "uint256",
          "name": "",
          "type": "uint256"
        }
      ],
      "stateMutability": "view",
      "type": "function"
    },
    {
      "inputs": [
        {
          "internalType": "uint256",
          "name": "amount",
          "type": "uint256"
        }
      ],
      "name": "borrowCORE",
      "outputs": [
        {
          "internalType": "string",
          "name": "",
          "type": "string"
        }
      ],
      "stateMutability": "nonpayable",
      "type": "function"
    },
    {
      "inputs": [
        {
          "internalType": "uint256",
          "name": "amount",
          "type": "uint256"
        }
      ],
      "name": "depositCORE",
      "outputs": [
        {
          "internalType": "string",
          "name": "",
          "type": "string"
        }
      ],
      "stateMutability": "nonpayable",
      "type": "function"
    },
    {
      "inputs": [
        {
          "internalType": "uint256",
          "name": "amount",
          "type": "uint256"
        }
      ],
      "name": "depositCollateral",
      "outputs": [
        {
          "internalType": "string",
          "name": "",
          "type": "string"
        }
      ],
      "stateMutability": "nonpayable",
      "type": "function"
    },
    {
      "inputs": [
        {
          "internalType": "address",
          "name": "",
          "type": "address"
        }
      ],
      "name": "lenderBalances",
      "outputs": [
        {
          "internalType": "uint256",
          "name": "",
          "type": "uint256"
        }
      ],
      "stateMutability": "view",
      "type": "function"
    },
    {
      "inputs": [
        {
          "internalType": "address",
          "name": "",
          "type": "address"
        }
      ],
      "name": "loans",
      "outputs": [
        {
          "internalType": "uint256",
          "name": "amount",
          "type": "uint256"
        },
        {
          "internalType": "uint256",
          "name": "collateral",
          "type": "uint256"
        },
        {
          "internalType": "uint256",
          "name": "timestamp",
          "type": "uint256"
        },
        {
          "internalType": "bool",
          "name": "active",
          "type": "bool"
        }
      ],
      "stateMutability": "view",
      "type": "function"
    },
    {
      "inputs": [],
      "name": "repayLoan",
      "outputs": [
        {
          "internalType": "string",
          "name": "",
          "type": "string"
        }
      ],
      "stateMutability": "nonpayable",
      "type": "function"
    },
    {
      "inputs": [
        {
          "internalType": "uint256",
          "name": "amount",
          "type": "uint256"
        }
      ],
      "name": "withdrawCORE",
      "outputs": [
        {
          "internalType": "string",
          "name": "",
          "type": "string"
        }
      ],
      "stateMutability": "nonpayable",
      "type": "function"
    },
    {
      "inputs": [
        {
          "internalType": "uint256",
          "name": "amount",
          "type": "uint256"
        }
      ],
      "name": "withdrawCollateral",
      "outputs": [
        {
          "internalType": "string",
          "name": "",
          "type": "string"
        }
      ],
      "stateMutability": "nonpayable",
      "type": "function"
    }
  ],
  "bytecode": "0x608060405260008055600060015534801561001957600080fd5b5061047f806100296000396000f3fe608060405234801561001057600080fd5b50600436106100d45760003560e01c8063a27a944d11610081578063d9e69a051161005b578063d9e69a05146101e8578063e02a4dfd146101f0578063f966ade7146101fa57600080fd5b8063a27a944d146101a2578063bad4a01f146101c2578063caec2529146101d557600080fd5b80636e35f124116100b25780636e35f1241461012b57806373b4086b146101335780638a7130a01461018f57600080fd5b806333813002146100d95780635b72a33a146101025780636112fe2e14610118575b600080fd5b6100ec6100e73660046102c7565b610202565b6040516100f991906102e0565b60405180910390f35b61010a600581565b6040519081526020016100f9565b6100ec6101263660046102c7565b610223565b61010a605081565b61016d61014136600461032f565b600260208190526000918252604090912080546001820154928201546003909201549092919060ff1684565b60408051948552602085019390935291830152151560608201526080016100f9565b6100ec61019d3660046102c7565b610244565b61010a6101b036600461032f565b60036020526000908152604090205481565b6100ec6101d03660046102c7565b610265565b6100ec6101e33660046102c7565b610286565b61010a609681565b61010a62278d0081565b6100ec6102a7565b60606040518060600160405280602281526020016103c06022913992915050565b60606040518060600160405280602a8152602001610396602a913992915050565b60606040518060600160405280602481526020016103e26024913992915050565b606060405180606001604052806029815260200161036d6029913992915050565b60606040518060600160405280602381526020016104066023913992915050565b606060405180606001604052806021815260200161042960219139905090565b6000602082840312156102d957600080fd5b5035919050565b60006020808352835180602085015260005b8181101561030e578581018301518582016040015282016102f2565b506000604082860101526040601f19601f8301168501019250505092915050565b60006020828403121561034157600080fd5b813573ffffffffffffffffffffffffffffffffffffffff8116811461036557600080fd5b939250505056fe596f752061726520696e20746865206465706f736974436f6c6c61746572616c2066756e6374696f6e596f752061726520696e20746865207769746864726177436f6c6c61746572616c2066756e6374696f6e596f752061726520696e2074686520626f72726f77434f52452066756e6374696f6e596f752061726520696e20746865207769746864726177434f52452066756e6374696f6e596f752061726520696e20746865206465706f736974434f52452066756e6374696f6e596f752061726520696e207468652072657061794c6f616e2066756e6374696f6ea2646970667358221220c02058048843a2a85d922266b9757f7636d01ec2bd38a34ad034d8f9df7f0b4c64736f6c63430008180033",
  "linkReferences": {},
  "deployedLinkReferences": {}
}